:020000041000EA
:1000000000B5324B212058609868022188439860DF
:10001000D860186158612E4B002199600221596106
:100020000121F02299502B49196001219960352056
:1000300000F044F80222904214D00621196600F024
:1000400034F8196E01211966002018661A6600F04E
:100050002CF8196E196E196E052000F02FF8012189
:100060000842F9D1002199601B49196000215960AB
:100070001A491B48016001219960EB211966A021F2
:10008000196600F012F800219960164914480160C1
:100090000121996001BC002800D000471248134993
:1000A000086003C880F30888084703B5996A0420EC
:1000B0000142FBD001200142F8D103BD02B5186610
:1000C0001866FFF7F2FF186E186E02BD00000240BE
:1000D000000000180000070000035F00212200005C
:1000E000F4000018222000A00001001008ED00E03C
:1000F00000000000000000000000000074B24E7A12
:1001000000200420F7010010C3010010C5010010F9
:10011000C1010010C1010010C1010010C101001097
:10012000C1010010C1010010C1010010C701001081
:10013000C1010010C1010010C9010010CB01001065
:10014000CD010010CD010010CD010010CD01001037
:10015000CD010010CD010010CD010010CD01001027
:10016000CD010010CD010010CD010010CD01001017
:10017000CD010010CD010010CD010010CD01001007
:10018000CD010010CD010010CD010010CD010010F7
:10019000CD010010CD010010CD010010CD010010E7
:1001A000CD010010CD010010CD010010CD010010D7
:1001B000CD010010CD010010CD010010CD010010C7
:1001C00000BE00BE00BE00BE00BE00BE00F04BF888
:1001D000103800BEF2EB8871D8C60010F8C60010C7
:1001E0003402001090A31AE700202149086006C8D5
:1001F00081F3088810471F48006800282FD10DA4FC
:100200000ECC002902D000F012F8F9E71A491B4A77
:10021000002000E001C19142FCD1194988471949E9
:1002200088471949884700BEFDE701C901C29A42C3
:10023000FBD37047F8C60010C000002058210020F2
:1002400090E70010000004200000042090E7001058
:1002500000100420001004200000000070470B482C
:1002600005F040FB0047EFF30580C0B27047000087
:1002700008ED00E0000000D0582100204C2F0020A5
:100280002D290010550B0010652A0010575600004C
:1002900006005250ABB360532CBE00100600525003
:1002A000861C03023CBE0010060052505422A29D40
:1002B00044BE001005005250DE65F46890E700105F
:1002C000F8B5C0460448054B10B5834203D0044B33
:1002D000002B00D0984710BD582100205821002045
:1002E0000000000006480749091A8910CB0F591869
:1002F00010B5491003D0044B002B00D0984710BD17
:1003000058210020582100200000000010B5074CA3
:100310002378002B09D1FFF7D5FF054B002B02D026
:10032000044800E000BF0123237010BD60220020BC
:1003300000000000C0B70010054B10B5002B03D023
:100340000449054800E000BFFFF7CCFF10BDC046E0
:100350000000000064220020C0B7001070B5D02457
:100360002406236DDB0705D5012509F061F9236D0E
:100370001D42FAD1D023FF221B061A6570BDC0466C
:1003800070B5D0242406236DDB0705D5012509F0BF
:100390004FF9236D1D42FAD1D023FF221B061A65A7
:1003A00070BDC046F8B53E4806F032FB192001F09A
:1003B000FFF8D02580232D069B046B62FF23802647
:1003C0002B653849102002F005FD0121102002F0B4
:1003D000D3FCB6010D2001F0EBF80B206E6201F0AA
:1003E000E7F8012200210B2001F08EF80C2001F02B
:1003F000DFF8012200210C2001F086F80E2001F028
:10040000D7F8012200210E2001F07EF80F2001F024
:10041000CFF8012200210F2001F076F8224C0122B2
:10042000230008210E2001F089F823000122082171
:100430000F2001F083F82300012208210C2001F095
:100440007DF82300012208210B2001F077F8174FD7
:10045000174C7B683A68002B02D0042B01D0FEE7D2
:10046000FEE7137851789078D278612BFDD1752909
:10047000FDD17428FDD16F2AFDD123686E61D80F9C
:10048000C018401001F006FD2368AE61D80FC018F7
:10049000401001F0FFFC206809F0C0F8D9E7C04621
:1004A000C0B70010810300107D080010B0220020AA
:1004B000F0130020F8B506000AF05CFF084F0500B5
:1004C0007C682200844200D90200002A06D03868E5
:1004D00031000BF0EDF8002800D0F8BD601BFCE700
:1004E000B0220020110008B4F0B50500080082B069
:1004F0001C236C460E3000AFC008FB18C000201A49
:1005000004CB85467B6005F0AFF904002800083075
:100510006E4628600F2C10D8012C0BD0002C13D164
:1005200000236C60BD460355280002B0F0BC08BC37
:1005300001B0184733782B72F2E7002C0ADB601CFD
:1005400006F080F9AC6028602200310006F074F9F2
:100550002868E5E7014809F0F1F8C04694B80010B2
:10056000F0B5C64600B54268040015008A4200D2C4
:100570000D00260027680836BE4227D0A368AB428C
:1005800017D019D30F2D23D9002D3BDB681C06F0A3
:1005900059F9636880465A1C2768012A24D0002A2A
:1005A00025D1BE4202D0380006F054F94346A5607A
:1005B000236004BC9046F0BD002D23DB5B00AB4202
:1005C000E4D9002B1ADB581C1D00E0E70F23D6E707
:1005D000BE42EED00132012A0DD0002A15D13800DA
:1005E00006F038F92660E4E73B780370D9E7390074
:1005F00006F022F9D5E73B782372F0E78020054D1D
:100600000006C4E7044809F099F83900300006F004
:1006100013F9E4E7FFFFFF7F94B80010F0B55746E9
:100620004E464546DE46E0B5150085B09A46904BED
:1006300042680E9EEB1804000F009B1A9E4200D9E0
:1006400010E108218C46731B84449B469046036846
:100650006046D11B491BD84401908946984251D02D
:10066000A168884552D8DF199A4515D24B46002B10
:1006700008D0B54206D0B8197919012B00D099E0FD
:100680000B780370002E2DD0012E4FD153461B78CE
:100690003B7023689B4627E09B189A45E6D8002EBE
:1006A0001BD0B54200D397E04B46002B00D079E039
:1006B00053467D199B199D4200D29FE0012EE5D043
:1006C0003200514638000BF06BF823689B460BE074
:1006D0003200514638000BF063F84B46002B01D036
:1006E000B5425FD123689B4643465A466360414604
:1006F00000232000535405B03CBC90469946A246C6
:10070000AB46F0BD41460F29ADD90F214346002B22
:1007100000DAAAE04B00039398450FD2581C002B37
:100720000FDA8020524B000603930AE03200514654
:10073000380006F081F823689B46D5E74346581CED
:10074000039306F07FF8236883460293002F03D0BB
:10075000012F33D11B7803705346002B08D0002E95
:1007600006D05B46D819012E31D153461B78037051
:100770004B46002B0AD0029BF0199C464B46E919C8
:1007800058446144012B1ED10B780370019B0298E1
:100790001A00824201D006F05DF85B462360039B9D
:1007A000A360A1E74B46B8197919012B22D10B7828
:1007B00003701BE04A460AF0F3FF63E719003A00B2
:1007C00006F03AF8C8E74A4606F036F8DEE73200A7
:1007D000514606F031F8CBE7012E00D078E75346BA
:1007E0001B783B704B46002B00D079E7B54200D216
:1007F0005EE777E74A460AF0D3FFF7E755450AD8A0
:1008000051465944012E1DD03200380006F014F82C
:1008100023689B4668E75346ED1A012D0FD0002D43
:100820001AD17819721BBF19012A10D0002A00D1E1
:1008300058E7390006F000F823689B4654E71B7818
:100840003B70EEE70B783B7023689B464CE73B78A8
:10085000037023689B4647E72A00514638000AF098
:100860009FFFDEE7034808F069FF034808F066FFD2
:10087000FFFFFF7FACB8001094B80010F0B5C6467B
:1008800000B582B0050001F05FFC00290DD0FA220E
:100890000023920005F0BEF85E4C2368C01A64285D
:1008A0000CD802B004BC9046F0BDFA21890005F0D6
:1008B0006FF8584C2368C01A6428F2D901F044FC40
:1008C000002928D0FA220023920005F0A3F8206026
:1008D0000E2D27D00F2D58D00C2D77D00B2D15D1E4
:1008E0004D48FFF7E7FD002810D14C48D024802662
:1008F00006F08EF8FA202406B6014000666101F089
:10090000C9FAFA20A661400001F0C4FA290044485F
:1009100006F09CF9C5E7FA21890005F039F8206056
:100920000E2DD7D13F4C2368012BEFDD3E4806F05A
:100930006FF83E4B3E4F98463E4ED0231B065B68F9
:100940005B04E3D52368642B15DC023B622B0ED8D5
:10095000300006F05DF823686420013B236001F05D
:1009600099FAD0231B065B685B04EBD4CEE7380012
:1009700006F04EF8E1E7404606F04AF823686420A6
:100980000A3B236001F086FAD7E7264C2A4B2268FF
:100990009A42BBDC294806F03BF8294BD026984602
:1009A000284F360673681B04B0D5234B22689A4241
:1009B0002CDC380006F02CF8236864200A3323600E
:1009C00001F068FA73681B04EFD49FE71E4806F035
:1009D0001FF81E4C2000FFF76DFD00280DD00E48BB
:1009E000FFF768FD002891D104231948009342685D
:1009F00023000021FFF712FE88E706231448009326
:100A00004268054B0021FFF709FE7FE7404605F0ED
:100A1000FFFFC7E7682C002064B800106CB8001016
:100A20007CB80010F0130020D8B70010ECB700100D
:100A30000CB80010FCB700108713000020B800109D
:100A400044B8001034B8001058B80010D0B70010E7
:100A5000B0220020F0B54E46DE4657464546914648
:100A6000E0B583B0019343680E005A1A4946521A02
:100A700092460C9A0400551AED1808239B46036809
:100A800083449B454DD08368002D5BDB9D422DD96F
:100A90005B009D422AD2002B50DB581C1D0005F044
:100AA000D1FE236807009846002E03D0012E27D1DF
:100AB0001B780370019B002B07D00C9A002A04D0EE
:100AC000B819012A33D11B7803705346002B1CD16F
:100AD000C34502D0404605F0BDFE2760A56003B0C7
:100AE0003CBC90469946A246AB46F0BD681C05F05A
:100AF000A9FE236807009846002EDBD0012ED7D030
:100B00003200190005F098FED4E70C9BF0184E4413
:100B10003100534638184144012B04D10B7803703F
:100B2000D6E70F23B0E7524605F086FED0E719005E
:100B300005F082FE5346002BCAD0E6E78020034D25
:100B40000006D4E7024808F0F9FDC046FFFFFF7F2A
:100B500094B80010F0B5DE4657464E464546E0B51F
:100B6000A9B006F07FF8E34808F070FDE2490F20D5
:100B700002F030F901210F2002F0FEF8DF4CE049CD
:100B8000200008F051FC0321022000F0A5FC032105
:100B9000032000F0A1FC00220121022000F0B4FC9F
:100BA00000220121032000F0AFFC230000223C21A1
:100BB00004A800F0DFFBD34904A800F06BFAD24B85
:100BC0009B46D24B9A46D24B9946FA20800001F0C0
:100BD00061F9002104A800F045FA5B461C6820007A
:100BE00005F0B0F902000B000020CA4905F023F916
:100BF00005F0F0F9C84905F070FD53461022186061
:100C00004946C64B0AA80094FFF76CFC5346186887
:100C100005F06AFDC24B009001913A22494610A8A6
:100C2000FFF760FC119B1A1F9A4200D9A6E100232E
:100C30001099BC4E119216AC8B54179323727368A3
:100C400018AD991D20001695FFF78AFC1799B64B31
:100C50005B1A052B00D88EE116988F1DA84200D193
:100C600070E1A3689F4200D92DE140180622AF49E8
:100C700005F0E2FD0023169A1797D355726817996D
:100C8000169833685618A84200D159E1A768BE42A9
:100C900000D920E1002A06D04018012A00D055E1F1
:100CA0001B78037016980023179683550133009321
:100CB00004A823000022002100F066FB1698A84239
:100CC00001D005F0C7FD00230B9922AD083124AFF8
:100CD0002800239322972B72FFF742FC2399924B13
:100CE0005B1A072B00D846E10C0022980834B84262
:100CF00000D123E1AB689C4200D9DCE04018082217
:100D00008B4905F099FD0023229A239413550B9AE1
:100D1000239922980A9B5418B84200D1E7E0AE68A4
:100D2000B44200D9C0E0002A06D04018012A00D001
:100D300011E11B780370229800232394035501339B
:100D4000009304A82B000A22002100F01DFB22982A
:100D5000B84201D005F07EFD002311991CAE33721C
:100D60000B311EAC30001D931C94FFF7F9FB1D994D
:100D70006D4B5B1A0A2B00D8FDE00B2398461C989C
:100D80008844A04200D1ADE0B368984500D983E023
:100D900040180B22674905F04FFD434641461D931D
:100DA00000231C9A5354119A1D99109B5018804689
:100DB0001C980393A04200D196E0B3689C46E0459E
:100DC00062D8002A07D04018012A00D0C8E0039B4F
:100DD0001B7803701C98434642461D93002383549E
:100DE0001D99514B5B1A012B00D8C4E01C988B1C39
:100DF0009846A04200D1A7E0B36898453CD8401877
:100E000002224D4905F018FD434641461D9300233B
:100E10001C9A53541C9B2F60A34200D1A5E022933F
:100E2000B36824931D9B04A82393002333721D935E
:100E30000133009314222B0000211C9400F0A4FA2B
:100E40002298B84201D005F005FD1C98A04201D0BF
:100E500005F000FD04A8002100F01CF9109812AB69
:100E6000984201D005F0F6FC0A980CAB984200D1EC
:100E7000ABE605F0EFFCA8E6022300220093300069
:100E80002D4BFFF7E7FDBFE700923000039B0022E8
:100E9000FFF7E0FD1C989EE70B2300220093300033
:100EA000244BFFF7D7FD78E7009228000022FFF7D8
:100EB000D1FD229840E708230022009328001C4B14
:100EC000FFF7C8FD1FE70623002200932000174B01
:100ED000FFF7C0FDCEE6009220000022FFF7BAFD2A
:100EE0001698E0E60F2350E70F239C4667E70F268E
:100EF00016E7C046A50300105D030010D8180020B7
:100F0000801A0600F4130020F0130020202800208F
:100F1000695800100000F03F00007A44C8B8001083
:100F2000CCB80010B0220020FFFFFF7F34B90010C2
:100F30003CB9001048B9001054B900100F23DAE68C
:100F40000F27A4E60F238DE60F2356E7190005F0BF
:100F500073FC1698A7E6190005F06EFC2298EBE6E4
:100F6000039905F069FC1C9835E710222100380030
:100F700005F062FC56E7034808F0E0FB024903482D
:100F800008F0F4FB1CB90010D0B80010E4B8001051
:100F90000D4B10B51A0008321A600C4A9A600422F0
:100FA0005A6000221A7301F0CFF8002907D0FA2204
:100FB0000023920004F02EFD054B186010BDFA21AD
:100FC000890004F0E5FCF7E7B02200206175746F3A
:100FD000682C002070B5002913DB047AA14210DAD6
:100FE000002A0EDB457AAA420BDAC568012D02D130
:100FF0005200013212B2012B25D0022B13D0002B4C
:1010000000D070BD0725D3172B409B18DB105C4325
:1010100001232A4093401A006118046961180B7873
:1010200093430B70EDE70725D3172B409B18DB107C
:101030005C4301232A4093406118046961180A78CF
:1010400053400B70DDE70726D5173540AD18324009
:101050009340ED106C436118046961180A781343DA
:101060000B70CEE710B500290AD0012907D1437AC9
:10107000027AFE315A430069D21005F0D7FB10BD49
:10108000437A027A00215A430069D21005F0CEFB60
:10109000F5E7C046F0B54746CE4680B585B002AF0D
:1010A00004000E1E00D1066900252223BD80217890
:1010B0007B7100953A1D203B606808F039FA217871
:1010C000BD8000953A1D0223606808F031FA0723BD
:1010D000BD8021787B7100953A1D053B606808F062
:1010E00027FA6946237A627A09205A43D210531CA0
:1010F00098460733DB08DB00CB1A9D4602AB9946C6
:101100004023494668440B70310005F095FB217877
:101110006068434600954A4608F00AFABD4603B0A7
:101120000CBC90469946F0BDF0B543608123DB01CD
:1011300005000180C2600381802085B0C0000026C8
:1011400005F084FBAE2303AC268028616370297808
:1011500022000096AC3B686808F0EAF926802978FE
:10116000220000960223686808F0E2F91023402765
:10117000268029786370220000960E3B686808F08C
:10118000D7F92680297867702200009602236868C4
:1011900008F0CEF92023268029786370220000967B
:1011A0001E3B686808F0C4F9268029782200009662
:1011B0000223686808F0BCF98123268029786370CF
:1011C000220000967F3B686808F0B2F9FF23268072
:1011D0002978637022000096FD3B686808F0A8F942
:1011E000A123268029786370220000969F3B6868BF
:1011F00008F09EF9C82326802978637022000096A3
:10120000C63B686808F094F9A623268029786370A5
:1012100022000096A43B686808F08AF9A82326807B
:101220002978637022000096A63B686808F080F970
:101230003F23268029786370220000963D3B686832
:1012400008F076F9D323268029786370220000966F
:10125000D13B686808F06CF9268029782200009656
:101260000223686808F064F9D52326802978637022
:1012700022000096D33B686808F05AF98023268044
:1012800029786370220000967E3B686808F050F968
:10129000D92326802978637022000096D73B68689E
:1012A00008F046F9222326802978637022000096F0
:1012B000203B686808F03CF9DA23268029786370BF
:1012C00022000096D83B686808F032F91223268085
:1012D0002978637022000096103B686808F028F9AE
:1012E000DB2326802978637022000096D93B68684A
:1012F00008F01EF9268029786770220000960223E4
:10130000686808F015F98D2326802978637022001B
:1013100000968B3B686808F00BF914232680297827
:10132000637022000096123B686808F001F9A4235C
:1013300026802978637022000096A23B686808F036
:10134000F7F8AF2326802978637022000096AD3B22
:10135000686808F0EDF86B7A2A7A00215A43286908
:10136000D21005F063FA28000021FFF793FE280051
:1013700005B0F0BD10B50400FFF7D6FE014B20000C
:10138000636110BD58B90010F0B5DE4657464E46B1
:101390004546E0B583B000925A6881468A469B462E
:1013A000002A58D0012714E00134013AA244002A4F
:1013B00009D0012A47D0411C0AF0F2F95B465B686C
:1013C0005A1E5B4618685B465A6000238354002A05
:1013D00041D05B4649461868496903784C787E2BB2
:1013E000E2D8002CE0D00026203B01930B78019836
:1013F0008A19604312189578002B0CD05246B21807
:1014000012B2002490462F420CD1013464B26D0810
:101410009C42F8DB4C780136F6B2A642E7D35B4635
:1014200005CBC1E7009B4146E21812B20C9B48462F
:10143000FFF7D0FD4B46596901340B7864B26D0853
:10144000A342E0DCE6E7437803705B465A60002382
:101450008354002ABDD103B03CBC90469946A246B5
:10146000AB46F0BDD0231B06F0B51D68C6466B1E0B
:101470009D416B4230251D40144B00249C46144B6B
:1014800007270F26984600B56544E2081300083385
:101490009B0059593B0023409B00D94031400FD05D
:1014A000080098403C320B4B9200D050D02342466B
:1014B0001B061B689B009B58002B01D020009847FF
:1014C00001341E2CE1D104BC9046F0BD0041014026
:1014D000F822002000400140094A8300944640223F
:1014E000634410B51C68C0006240C02414408022D0
:1014F000520113431C60034B9C466044416010BD85
:1015000004C00140004001400B4B80009C466044F9
:1015100000290DD00C210823002A00D00B000268FE
:1015200053400C221A4080235B011843026070472D
:1015300004210023F0E7C04604C0014070B5D02468
:1015400024062468C60865426C412F256442AC43DA
:10155000134DAC4607252840800081403000114DD6
:101560003C3064448000B6004151A419002A12D1D5
:10157000C022920114432160D022120612680A4947
:10158000920053500D20094901F024FC01210D2047
:1015900001F0F2FB70BD8022920114432160EBE761
:1015A0003041014000400140F82200206514001045
:1015B0000123D0228340120693629361094A83007B
:1015C0009446402263441968C0004A40C02111403B
:1015D0008022520113431960034B9C46052360444B
:1015E0004360704704C0014000400140F8B5EFF38C
:1015F000108772B60D4E3368002BFCD0BFF35F8F9F
:101600000725CB08C01801230D40AB401D0004780E
:10161000254007D123430370BFF35F8F356087F305
:101620001088F8BD100001F01FFAC0462C0100D050
:10163000F8B5CE4647468C4680B5EFF3108972B6B2
:10164000214D2C68002CFCD0BFF35F8F9A422CD820
:101650000721012511408D40D40804192678354210
:101660001FD007218846063909E045460F0015407E
:10167000AF40D408041926783D00374211D001321A
:101680009342F2D201204042BFF35F8F00220E4B03
:101690001A6089F3108800280FDB0CBC904699462D
:1016A000F8BD354325701000EEE7BFF35F8F0023D0
:1016B0002B6089F31088012040426346002BECD058
:1016C000089801F0D1F9C0462C0100D0024B1868EF
:1016D0008007C00F7047C04600C006400021044B81
:1016E000044ABFF35F8F02C39342FAD17047C046EA
:1016F000000100D0800100D0044A1078431CDBB206
:10170000172B00D9102313707047C046F417002020
:1017100000B5054B83B00100009318221F23034836
:10172000FFF786FF03B000BD38BB00108427002000
:1017300083680B4810B58446614462440901120174
:101740009A18591854684B6801209C4201D802D05D
:101750000020C0B210BD12680B689A42F9D8F7E7B2
:10176000FFFFFF0F0A4B1968EFF3108072B60A688B
:10177000002AFCD0BFF35F8F1B68BFF35F8F00228E
:101780001A6080F3108840BF002000217047C046D7
:101790004C2C0020F8B557464E464546DE46E0B58F
:1017A0001F000CAB1D780DAB1B7881469A46036871
:1017B00016009846002D3BD1987B002832D0424637
:1017C0004546440012682418033C1219517803005E
:1017D000A973002900D1E9730021050091705170AF
:1017E000117029E0D31814199D702278002A00D0B6
:1017F0005A705B46237043465D734B463200187D3A
:101800003B0000F003FD041E07D05346002B04D11B
:101810004B462900186800F0E9FE0E9B002B44D0CF
:1018200028001C703CBC90469946A246AB46F8BDC9
:101830002B006C006419033C1D4A94464A4692688A
:10184000634494461B010A9A63449A600B9A1E6093
:101850005F60DA60434600221B681B199A705A7059
:101860001A7043465B7B9B46002BC4D043462A003C
:10187000986859465B6898475B4642465B005B4404
:10188000033B12680028ADD0D31814195A46A27031
:101890001A78002A07D11D705A46434628005A7309
:1018A000AB45BFD1A9E76270F5E72800BAE7C046AB
:1018B000FFFFFF0FF0B5DE46454657464E46724BDA
:1018C0008200E0B5D55800238DB00B909B4627E0F1
:1018D000069A079B1100194303D02B69002B00D0F7
:1018E00093E02B68DA7B002A07D051008A18196828
:1018F0008C4649466244033A51704A46DA73EA68B4
:101900004B469446013B63441A7801321A705B4699
:101910002B616B68BFF35F8F5A461A6084F310889F
:1019200000F012FC6A68EFF3108472B61368002BA3
:10193000FCD0BFF35F8F2B689C465B7B9946002BE6
:101940005BD0AA68514B90464B441B0198444346D8
:101950001A685B6816001F00361A8F41002F6EDD73
:101960000B9800F053FC0022002300270026089269
:1019700009936B68BFF35F8F5A461A6084F310882F
:10198000002E76D0534618024B4639001843B04714
:101990006A6806900791EFF3108472B61368002B03
:1019A000FCD0BFF35F8F079B002B91DA2B69002BD4
:1019B00097D006980799089A099B121A8B410898A4
:1019C000099906920793079A914203D807D1069A7C
:1019D000904204D901225242D317069207935B46E4
:1019E000012104934B460391029301970096069AB6
:1019F000079B2800FFF7CEFE89E70022002300277F
:101A00000892099300260020B3E700F09DFB069A98
:101A1000079B12184B41994202D804D1904202D937
:101A200001225242D317594604910121039149469C
:101A30000197029100962800FFF7ACFE67E7002FA0
:101A400001D1002E8CD10021604600F023FD4346D9
:101A50001A685B680892099343469E68DF68EB68E2
:101A60004B44013B1B789A461B0218432861002017
:101A70007FE7002800D053E70DB03CBC9046994664
:101A8000A246AB46F0BDC046342C0020FFFFFF0F3E
:101A900010B5124C6368002B04D00A21104800F0E6
:101AA00041FC10BD23000F4A1021206800F0D4FC37
:101AB000032000F03DFB032000F014FC0A49032042
:101AC00000F05EFBFFF718FE084B9C4603236044C2
:101AD0002375074B80006060DC60DEE7F8170020AC
:101AE0004C2C002031170010B518001040000034B5
:101AF000342C002000487047F8170020F0B5454608
:101B0000DE4657464E46E0B585B00092019310ABD5
:101B10001B7805009B4600239A4698466A68EFF3B7
:101B2000108972B61368002BFCD0BFF35F8F2E684C
:101B3000B47B002C50D067003F193368033FDB199A
:101B40005A78B273002A00D1F27342469A705A70E2
:101B50001A70AA68534B94460099019AE3181B0126
:101B6000634419605A600E9A9A600F9ADA6042468E
:101B70003368DB199A705A701A70737B0393002BC9
:101B800040D01900736822009C46B068E047039972
:101B900032688C464B006344033B00282BD0D71996
:101BA000D318B9701A78002A00D073E01C70039B18
:101BB00073739C4227D0EB681B19013B18786B6844
:101BC000BFF35F8F42461A6089F310885346002B9B
:101BD00026D10002204307E06B68BFF35F8F1C60D3
:101BE00089F310880120404205B03CBC90469946DC
:101BF000A246AB46F0BDD318D7199C703A78002A9C
:101C000044D139707473287D009A019B00F0FEFA6C
:101C100082460028CFD02100286800F0E7FCCAE700
:101C20005B46002B30D00E9B0F9900209847030095
:101C30000B4329D006000F1E15DA00980199020007
:101C40000B00921BBB41994202D808D1904206D9A1
:101C500001235B42DC1700930194DA465EE70092B1
:101C60000193DA465AE700F06FFA36184F410096B2
:101C70000197B942ECD8F0D1B042EED901235B42D2
:101C8000DC1700930194E8E70020ADE75A70039B4E
:101C90003B70B7E77A701C70039B73739C4200D053
:101CA00089E7B0E7FFFFFF0FF0B557464E464546C0
:101CB000DE460400E0B50D0006267642F717361919
:101CC0006F4185B08F4200D987E000D182E000F0FB
:101CD0003BFA32003B00121A8B41002B00DC87E0FC
:101CE000674B99465A68EFF3108B72B61368002B56
:101CF000FCD0BFF35F8F4B461B6898469B7B9A4690
:101D0000002B7BD05B0053444246033B9C4641463C
:101D100012680093624453788B73002B00D1CB730D
:101D2000002349469370537013708968554A8C4656
:101D30005244554912016244166057609160D36065
:101D4000009942468C461268624493705370137037
:101D500043465B7B0393002B00D16FE019004046A4
:101D6000434652465B6880689847039B9C465A00EE
:101D70006244033A002854D0009940468C460368D8
:101D800003999A18634499701178002900D059700A
:101D9000534613704246039B53739A4551D04B46AA
:101DA0005B68BFF35F8F00221A608BF31088BC461C
:101DB000B0460094019500266546344F344A7B6A4C
:101DC0009D424CD8B96A414501D29D4247D0009C02
:101DD000019D1BE0864200D879E70026002700F02D
:101DE000B3F932003B00121A8B41002B00DD77E77C
:101DF000002B0BD1002A00D072E707E04B465B684E
:101E0000BFF35F8F52461A608BF3108820002900C1
:101E100000F0A6F905B03CBC90469946A246AB46F8
:101E2000F0BD43461968009B8A18CB185146917043
:101E30001978002900D05170039A1A70434652460F
:101E40005A734B463200187D3B0000F0DFF9002842
:101E5000A5D04B465146186800F0C8FB9FE71168B3
:101E6000EFF3108072B60B68002BFCD0BFF35F8FCE
:101E70001368BFF35F8F1E6080F3108820BF9EE75A
:101E8000F8170020FFFFFF0F651700100040054006
:101E90004C2C002070B5060000F056F9FA22040020
:101EA0000D00920000233000002104F0DFFB001938
:101EB00069418D4205D901204042C117FFF7F4FE68
:101EC00070BD8D42FAD18442F5D8F7E7F8B5574690
:101ED0004E46DE464546664CE0B581460F006268D8
:101EE000EFF3108872B61368002BFCD0BFF35F8F3E
:101EF0002668B57B002D00D19FE06B005B19033B8A
:101F00009A46336853441A005B78B373002B00D1B0
:101F1000F3730023937053701370A168554A8C4675
:101F20004946AA181201624411605349D3605760B0
:101F3000916032685244937053701370737B9B4668
:101F4000002B6DD02A001900B068736898475B4673
:101F50005A005A44033A002857D0594633689A1811
:101F6000534499701178002900D059705B46157060
:101F700073735D4555D00026E36862685B19013BC9
:101F80001B78BFF35F8F0021116088F31088002E4B
:101F900059D11B021D4320BF6268EFF3108872B64F
:101FA0001368002BFCD0BFF35F8FFF232068E9B2DA
:101FB000427B2B408A4250D05A00924602689A4493
:101FC000944652466244033A9278002A45D12369E6
:101FD0009D4200D122616368BFF35F8F00221A60C7
:101FE00088F31088254A536A9F4207D8926A0126CF
:101FF0004A4503D2FF1A7B1E9F41FEB230003CBC13
:1020000090469946A246AB46F8BD534631688A18B9
:10201000CB1895701978002900D051705A461A7063
:102020007573207D4A463B0000F0F0F8061EA2D0F2
:102030002900206800F0DAFA9EE76368BFF35F8F3B
:102040001D6088F310880D4A0026536A9F42D5D838
:10205000926A01364A45CDD3D0E7E2682D0A94460C
:102060006344013B1B78AB42B5D100F0BFFAB2E745
:10207000F8170020FFFFFF0F651700100040054014
:10208000F0B5C64600B5EFF305833F2213401800B4
:102090001038EFF3108772B61F4D2A68002AFCD063
:1020A000BFF35F8F012211008140884644461B49DF
:1020B0004C631B4C2678A4463400C440224007D110
:1020C000BFF35F8F2A6087F3108804BC9046F0BD91
:1020D0004C6A1449820051588C420FD3124BD2588B
:1020E00043469E4363461E70BFF35F8F00232B6001
:1020F00087F31088002AE8D09047E6E70B4A9B0058
:10210000944663441A681A60BFF35F8F00232B6004
:1021100087F31088D9E7C046280100D00040054069
:10212000832C0020582C002074260020D03F05402E
:1021300010B50100024A0348FFF758FA10BDC04627
:1021400054BB0010802C0020044A516A00E01900A2
:10215000906A536A9942FAD17047C04600400540E0
:10216000064A536A9942FCD807D1044B02E05A6AE6
:10217000914202D19A6A8242F9D3704700400540E9
:1021800070B504000D00EFF3108672B61A4A13689A
:10219000002BFCD0BFF35F8F002D1BD0200000F080
:1021A00011FE164988420AD0200000F013FE0121DA
:1021B000200000F0E1FD0123A340114A1360114B00
:1021C000A400E550BFF35F8F00220B4B1A6086F32B
:1021D000108870BD0B4BA200D5500122A2400A49C5
:1021E00020000B7893430B70044900F01DFE002182
:1021F000200000F0C1FDE5E7280100D0812000109B
:102200003860054074260020832C0020F0B5D646A7
:102210004F4646462E4CC0B5656A00E00D00A66AE2
:10222000616AA942FAD1AB4248D9EFF3108972B67C
:10223000284C21680029FCD0BFF35F8F2649012676
:102240008C46097886400F00884661463743FFB2C6
:102250000F70041D1E49A400204D4E63625084007F
:1022600063510D6A002435421BD04D6A00E0250001
:102270008C6AA2464C6AAC42F9D1AB4224D801D157
:10228000524521D8474521D0114B154A1E625E6345
:102290001F2318401E3B83401360634642460124BF
:1022A0001A70BFF35F8F00220A4B1A6089F31088FF
:1022B00020001CBC90469946A246F0BDAB4201D11D
:1022C000B242B2D80124F3E70024EAE70124E8E7A8
:1022D00000400540280100D0832C0020582C00200D
:1022E00080E200E010B5EFF3108472B60A490B6883
:1022F000002BFCD0BFF35F8F01238340074A0848BF
:10230000136202789A430270BFF35F8F00230B6061
:1023100084F3108810BDC046280100D0004005405D
:10232000832C0020024B9C46614489000160704769
:102330004000003410B50400FFF7DEF90100200072
:10234000FFF7F0FFFF23A380BFF35F8F10BDC046F0
:1023500010B50400FFF7D0F901002000FFF7E2FFFD
:1023600001235B42A380BFF35F8F10BD10B5040053
:102370000120FFF7CDF9044B9C46604480002060AB
:10238000BFF35F8F10BDC04640000034F8B547462C
:10239000CE4680B54C0003686418033C1A19567881
:1023A00007000D00002E04D128000CBC9046994671
:1023B000F8BD710089190339884643445978894624
:1023C000002159705170002D11D07B683200290016
:1023D000806898473B68002832D01A1943449D70A2
:1023E0001178002900D059701670A04600E0350021
:1023F0004B46002BD8D049463800FFF7C7FF041ED4
:10240000D2D002007B682900B868984763001B1986
:10241000033B3A68002809D1D318424494701978D4
:10242000002900D051701D702500BDE74146D3182A
:1024300051189D700A78002A00D05A700C70B3E7CA
:1024400042461C199A18A6701378002B00D06370AE
:1024500015703500CCE7C04610B583600023CCB2C0
:1024600043730133047342608373C4730068012CA7
:1024700006D9421C0133DBB2137003329C42F9D8F7
:10248000FF2319404B0059180023401803384370AC
:1024900010BDC046F0B54E4657464546DE46E0B54F
:1024A000467B03687400A419033C1A19177883B09B
:1024B00005008946002F1ED1002911D0C07B0028BD
:1024C0002AD041000918591803394E70EE73002FB5
:1024D00006D07900C9190339884600214344997010
:1024E0000023300053706F7303B03CBC9046994694
:1024F000A246AB46F0BD7900C91903398846591880
:1025000048788246002809D149460029E5D0E87B71
:102510000028D6D1EE73DCE7EE73E1E742005244C7
:10252000033A93465B445A78019200225A704A70EB
:102530006B6802003900A86898472B68002830D1E2
:10254000414650465A4659189A1888701078002803
:1025500000D048701770D8465746019A002A2DD0EF
:1025600011002800FFF712FF8246002825D0020044
:1025700039006B68A868984753465900514403399D
:102580002B6800281CD04246591898188F70027882
:1025900094461A196446002C00D04C7051460170C4
:1025A000B2E75946424659189A188F701078002899
:1025B00000D0487051461170CFE72B681A19A3E775
:1025C0005A18984493465046424690705A4612789C
:1025D000944660461A19002802D04046644644706A
:1025E00058468846077057468EE7C046F0B54546C0
:1025F000DE4657464E46E0B50C0083B0050000238A
:10260000002927D06600477B01683619033E8819E8
:10261000A74233D08278002A1CD053009B18033B7A
:10262000CB181A78A2421FD142781A700023027880
:10263000837043709146002A33D1EA7B002A66D02A
:1026400053009B18C91803394C70EC730023437076
:1026500001236F73180003B03CBC90469946A24614
:10266000AB46F0BD002AE1D053009B18033BCB18CA
:102670005A78A242F6D142785A70D7E7027801928E
:10268000002A46D1EA7B002A3FD053009B18C91884
:1026900003394F70EF7300234370019B6B73012369
:1026A000D8E752004A44033A90468A185778002FD8
:1026B00042D1EB7B002B00D029E14F466E7BEC73BF
:1026C000002393704370002EC2D03A006B68310033
:1026D000A868984773009B19033B2A68002808D014
:1026E000D31842449670197800290CD11F70370016
:1026F000AEE74146D31851189F700A78002A00D0DF
:102700005A700E70A4E75170F0E7EF73C3E7EC73F3
:102710009CE71400A44652006244033A90468A188B
:102720005478A146002C58D1EB7B002B00D0F7E069
:10273000EF7300239370AEE77800C0190338824628
:10274000514448784B7053706B6883463A00494651
:10275000A86898472B68002800D1A2E04246981844
:10276000524699184A468A70019002000078002863
:1027700001D0019A487017704F465A46002A28D057
:1027800059462800FFF702FE8146002820D00200AB
:102790006B683900A86898474B465B004B44033B85
:1027A0009C4600286DD042462B68981862469918BE
:1027B0008F7001900078002800D083E04A4601988D
:1027C0000270E97B98196E7B002951D1019A76E756
:1027D0002B6842469A180192F3E760004844033898
:1027E0008246514448784B705370614622008346BC
:1027F0006B68A868644698472968002878D05246D4
:1028000043468A18CB1894701878002800D050706E
:102810004A46C2461A705B46002B50D059462800E3
:10282000FFF7B4FD8046002848D0019C020021003B
:102830006B68A868984743465A004244D31E2968EB
:10284000002844D05246CB188A189C701078002873
:1028500000D0587043461370EB7B8819002B00D1D1
:1028600066E75E00F318C91803394F70EF7360E72D
:102870004A00944661445B18033B5C70019AEC7318
:102880001EE729684846CA184346CB189870107846
:10289000804688194646002E00D05E701770E046CC
:1028A00007E74146524659189A188F701078002849
:1028B00000D048704946D04611705EE729685346FB
:1028C000CA18C9E74A46487001990A7079E7CA18D8
:1028D00053464046CB189870107884466446881951
:1028E000002C00D05C70019B1370434601931BE7E2
:1028F0005346CA1843464846CB18987010780028AB
:1029000000D05870019B13704B46019383E7032658
:102910007343C91803394C706E7BEC734F46CFE696
:1029200003267343C91803394F7001E7304B314A0E
:1029300070B51A60304A314B31491A6010008B680B
:102940009843FBD12F4C304DAC4209D20322231DBA
:102950000335ED1A9543ED1808CC9847AC42FBD1EE
:1029600000F0A0F8294A254B1A60254A9368DB013C
:102970008033FBD14022264B264C274D9A675A675D
:102980001A67DA66AC4215D2230007350833ED1A10
:10299000393A9543ED1804E00834FFF7D9FCAC420E
:1029A00008D063792000002BF6D10834FFF7C2FC71
:1029B000AC42F6D1194D1A4CC022A168280003F090
:1029C0003BFFA560FEF78AFE00F066FBFFF760F8AC
:1029D000144D154CA54209D203222B1D0334E41AD1
:1029E0009443E41808CD9847A542FBD170BDC0467A
:1029F00000E00040BFCDFBFEFE7F3C0000F0004049
:102A000000C000403821002048210020FFFFFF01C6
:102A100000F0014028210020382100200000002083
:102A200000ED00E0482100205821002000BEFDE715
:102A3000094A1368002B06D008491818884208D89C
:102A4000106018007047064B04491818136088423C
:102A5000F6D901235B42F4E724280020000004207B
:102A60004C2F002000BEFDE70FB400B5084883B02E
:102A700003F0CEFF049B002B07D005A9180001919D
:102A800002F010FF034803F0C3FF00BEFDE7C0469D
:102A900084BB001094BB001010B50148FFF7E4FFA1
:102AA00078BB001030B50C2083B000F063FBFEF75C
:102AB0000DFE00280ED0964B964A1A605A609A6016
:102AC000DA601A615A619A61DA611A62924A5A624C
:102AD00003B030BD914CA06700F09EFB0122904BEB
:102AE0001A60636C012BFCD103228E4B1A608B4A57
:102AF000936B012BFCD1022405338B4A01218B48B7
:102B0000009400F0E5FA0523894A009401218948E0
:102B100000F0DEFA884B5A68FF2A02D88022520061
:102B20005A6080227A4C7F4B21691201824D1A60D3
:102B3000002900D0E5E0E0217F4B02201A68114017
:102B4000802252012A431160196848400321014044
:102B5000116004219A681142FCD0802280219201E8
:102B60002A4309011160802252005A60734B23618D
:102B7000734B5968FF2900D8C1E00322684B7048A5
:102B80001A60012103009A681142FCD0E0251A68FE
:102B9000154080225201024315601B684B400321FF
:102BA000194011600221664A93681942FCD08023C3
:102BB00080219B010343090119608021614B490079
:102BC00051606361604B5A68FF2A00D859608022C7
:102BD0005E4BE16912015C4D1A60002905D0606905
:102BE00002F0D6FE01300138FDD1E02256490B68D3
:102BF0001A4080235B012B431A60802380229B01B3
:102C00002B4312011A608022424B52004A60E3615A
:102C10004F4B5968FF2900D85A6080224D4B216ADA
:102C200012014B4D1A60002905D0606902F0B0FE18
:102C300001300138FDD1E02245490B681A4080235C
:102C40005B012B431A60802380229B012B431201DE
:102C50001A6080235B004B602E4B3F4A23623F4B40
:102C60005968914201D801325A6080223C4B616A16
:102C700012013A4D1A60002905D0606902F088FE01
:102C800001300138FDD1E02234490B681A4080231D
:102C90005B012B431A60802380229B012B4312018E
:102CA0001A608023DB024B601B4B63622D4B5A681A
:102CB000FF2A02D8802252005A6080222A4BA16942
:102CC0001201284D1A60002905D0606902F060FEEB
:102CD00001300138FDD1E02222490B681A408023DF
:102CE0005B012B431A60802380229B012B4312013E
:102CF0001A6080235B004B60124BA361E8E65A60C8
:102D00003BE7606902F044FE01300138FDD112E773
:102D100088270020006CDC021BB700000080004008
:102D20003CB0004030B00040002F685900800240A5
:102D300000389C1C00C0024030800040001BB700DF
:102D40003C800040405973075480004054B000401C
:102D50006080004060B00040FFFF03006C800040D6
:102D60006CB000404880004048B00040014B8000FB
:102D7000C05870478827002001238340002902D1D2
:102D8000034A13607047034A1360034A1360F9E76C
:102D900080E100E080E200E000E100E002000120CC
:102DA0009040034B1B681840431E9841C0B27047C7
:102DB00000E100E001238340014A13607047C046F0
:102DC00000E200E0024B10309B688000C058704762
:102DD00000ED00E070B50D00EFF3108672B60F4AFB
:102DE0001368002BFCD0BFF35F8F0D4B10309B6836
:102DF00084001B590B4A934203D09D4201D0FFF738
:102E00004BFE074B9B681D51BFF35F8FBFF35F8F76
:102E10000022024B1A6086F3108870BD240100D096
:102E200000ED00E0CD010010F0B54546DE46574606
:102E30004E46E0B50D0083B0EFF3108A72B65C4ADF
:102E40001368002BFCD0BFF35F8F102291468144A2
:102E50004A46584B96009B689C59574B98469C4253
:102E600005D0AC424FD0554FE31B2F2B12D9514BFD
:102E70009B689C51BFF35F8FBFF35F8F00224C4B69
:102E80001A608AF3108803B03CBC90469946A2466B
:102E9000AB46F0BD012383409B465A46484B1B6816
:102EA0001A4000925A46474B1A60BFF35F8FFDF7F6
:102EB000DAF90190002803D0814501D0FFF7ECFD3D
:102EC0000123220006209A431300DB1B5B41444987
:102ED0005943090D93688C4610569D420AD151E022
:102EE00043001B1806209B00FB1899681856A9423E
:102EF00011D01A000028F3DA009B002B05D15A46A6
:102F0000304B1A60B3E71C00B1E75A462E4B1A60EB
:102F10002B4B1A60ABE7002825DB42001118890013
:102F20007D188846A9689960E979D97106216956A2
:102F30009971A9797F2913D8AD88F91A6D052D15D6
:102F400045444919E0250905490D2D022943998079
:102F500012181E4B9200BF181A781870BA71CBE77E
:102F6000BD210902F3E70199002913D1002A0FD0EE
:102F7000FF20907116489080144A1078987163462B
:102F80001370B9E713000028C7DA019A002A01D1AB
:102F90004446F1E70F4A1049D21A083A5002400D50
:102FA000014399800D4952080A43DA80A4E7C046DC
:102FB000240100D000ED00E0CD0100102018002019
:102FC00000E100E080E100E080E200E0812C0020F0
:102FD00000BDFFFF5A18002000F0FFFF00F8FFFFC0
:102FE000AAAA0000F8B5012504000543FDF73BF946
:102FF000EFF3108672B6214A1368002BFCD0BFF3A2
:103000005F8F1F4A2100891A4941224B4B431B0DF8
:103010001C4980008F685BB23F58AF421CD006212C
:103020005156994226D012215156994224D01E2140
:103030005156994214D02A2151560320994210D05A
:10304000114A11781370A171BFF35F8F00220B4BEF
:103050001A6086F31088F8BD8A680C491150EFE7B2
:1030600002204100091889005218FF219171084976
:103070009180E5E70020F4E70120F2E7240100D089
:103080002018002000ED00E0812C0020CD01001070
:1030900000BDFFFFAAAA0000F0B500220324FF270D
:1030A000802620003D00094B11009C461040C000C6
:1030B0008540A14361440B680132AB433500854034
:1030C0002B430B60202AECD1F0BDC04600E400E0A9
:1030D000F8B504000C201E0017000D0002F058FC8B
:1030E0004201121A9101891AC90009188901380090
:1030F00002F04EFC069B36041B031E432368002B84
:1031000021DB184BE21853425A4180235B019C4655
:1031100052421A40144B62441A60144B1A60144B0A
:10312000170099688F43FBD1C023221D9B011343D5
:1031300021222560A0601A602268002AFCDA082299
:10314000E6601A60F8BD3F2322681340AB42D8D135
:10315000A3681B051B0D8342D3D1E368002ED0D199
:10316000F0E7C0460040FDBF00E0004000F0004036
:1031700000C0004080239B001843014BD862704779
:103180000080054010B58024194BE4051C60002820
:1031900027D00123174C1843174BDC61174C4440D0
:1031A0001C62596298628021114BC905196014484C
:1031B00014490860E021C9041960002A14D05301A1
:1031C0009B1A9B009A18104B12019A420DD90F4A74
:1031D00013601A00084B5A6080220D4BD2051A600A
:1031E00010BD054BD861DEE70A4A084B1A60F1E7CB
:1031F00000B00540D3C007B0008005402D3FF84F18
:10320000FCFF010008200140FFFFFF002C2C0020E4
:1032100000A00540A0860100AA23064A1B011360F6
:103220002F230549D360054B19605368002BFCDA46
:103230007047C0460040024000B0FA000060024003
:103240009A4200D2885470477047C04610B5002893
:1032500003D04A680B681100984710BD10B50028CC
:1032600001D003F07DFB10BDF0B557464546DE4664
:103270004E46E0B585B0984610AB1D78139B93463B
:103280009A460223149A0F00134006000F9C1299CD
:103290000193002B2DD1013313409C465346002B44
:1032A00066D18C420DD21F2C00D912E10E9B30202A
:1032B0001B1902E00133202C03D001341870A14205
:1032C000F8D86346002B14D0A24512D90E9B3020AB
:1032D0001B191F2C21D8AC461500524602E00133C1
:1032E000202C17D0013418709442F8D192462A004D
:1032F0006546D3062ED5530519D4002C11D1119B48
:10330000102B00D1D9E0022B1FD10E9960330B7026
:1033100001241AE092462A006546D3063ED553059D
:1033200005D4A14200D19FE0544500D19CE0119BFF
:10333000102B65D0022B06D11F2C65D862210E9B65
:103340001B19197001341F2C5ED830210E9B1B19DC
:10335000197001341F2C57D8002D1BD1530700D5ED
:1033600070E0130750D520230E990B55013415E05A
:103370006346002B6BD0002D00D070E00C2313426D
:103380006DD18C42A0D21F2C90D953462024202BE3
:10339000C3D8AEE72D230E990B550134930736D0D1
:1033A0005B4603931A000E9B029499464B46013CE0
:1033B000551C185D39004346B0472A00002CF5D152
:1033C000039A029B944663441D00019B002B0FD07F
:1033D0005B46EB1A53450BD22A005D46541C43460C
:1033E00039002020B0472200631B5345F6D3250047
:1033F000280005B03CBC90469946A246AB46F0BDBD
:10340000930641D51F2C52D95D46930712D15445DE
:1034100038D25B4653441B1B0F941C000F9B5A462B
:103420009946551C434639002020B0472A00A54242
:10343000F7D14C46002CC8D00E9B039502942A006D
:103440009946B3E72B230E990B550134A6E78C421E
:1034500000D34EE71F2C00D828E7202449E701239A
:103460005B429946CA448CE7631E002B15D1119B21
:10347000102B19D0022B00D147E730230E990124DD
:103480000B7069E75D46D5E71F2C00D986E77821E8
:103490000E9B1B191970013455E71199023C102934
:1034A000AED01C000B0045E793060DD50024582133
:1034B0000E9B1B191970013445E7930604D5582358
:1034C0000E9901240B7040E778230E9901240B70AC
:1034D0003BE72024F5E6C046F0B54546DE465746B4
:1034E0004E46E0B59BB09846259B249C1D00089055
:1034F00009910A920C9300220023200029000B94CA
:1035000002F0FAFC002800D0A7E10B9A0C9B92462F
:103510009B468023289ADB001A400E9201D1062395
:1035200026938023289A1B011A4056465B460D922B
:10353000334300D161E15B465800CC4B400D9C46C3
:10354000604402F0FFFCCA4ACA4B02F092FCCA4A2D
:10355000CA4B02F067FC5B46C94A1B031B0B1A43AC
:1035600004000D00C74B11005046002202F051FC30
:10357000C54AC64B02F07DFC02000B00200029006A
:1035800002F050FC02F0F6FC814602F0DBFCC04A7F
:10359000C04B04000D0002F06CFC0022BE4B02F098
:1035A00041FC02F0E7FCBD4A0600BD4B20002900AB
:1035B00002F05FFC040030000D000F9602F0C2FC28
:1035C000B84AB94B02F055FC02000B00200029005C
:1035D00002F01FFC02000B0006000F0002F049FC85
:1035E000320004000D003B003000390002F01AFCEC
:1035F000002210901191AD4B2000290002F01BFC1D
:103600000022AB4B02F00EFC02000B002000290050
:1036100002F011FC0022A74B02F004FC02000B0098
:103620002000290002F007FC0D0080210400320078
:103630003B000020C90502F0ECFB02000B0020005B
:10364000290002F0EFFB02000B001098119902F024
:10365000F2FB00228A4B02F0E5FB974A0F9B94464F
:10366000634400221B0502F004FC05000C0002006C
:103670000B005046594602F03FFC00280BD00123B6
:103680005B429C46280021000022894BE14402F065
:10369000D2FB05000C004B46C62663339E42B64162
:1036A0000D9B76420436002B00D0BCE0279B002700
:1036B0009E4200D29F1B0223289A1A400D9203D0EB
:1036C000734273415B421F404B46002B07D050466C
:1036D00059462A00230002F0AEFB82468B460022A8
:1036E00000230B980C9902F007FC002803D08021DE
:1036F000090659448B4652465B465046594602F0ED
:103700000EFC002800D044E101226C4B524250468E
:10371000594602F0F1FB002800D0D7E0289A684B08
:10372000039713400493269B524602935B460999E4
:103730000092019308980A9A434600F0FFFC0200A9
:10374000002E52D02020289B089C034059424B4118
:103750005B421840531C45309A4609994346A0479E
:103760004B46DA179D18DB0F9946731E55409B4652
:10377000002412AE02E03C00202F0DD028000A21C8
:1037800002F006F9671C30313419217028000A2133
:1037900002F0FEF8051EEED1052306935B46059365
:1037A000002304930A3303934B4601970096099F25
:1037B000089E02935246434639003000FFF754FDFD
:1037C0000D9B0200002B10D00A99431A27989842AB
:1037D0000BD989460500434639002020541CB047C8
:1037E0004B462200E31A9D42F5D810001BB03CBCAA
:1037F00090469946A246AB46F0BD0D9B55465C46A9
:10380000002B27D000239946269B4B4500DDB1E0D5
:10381000002326938023289ADB001A430023289252
:103820000026994642E723002B43EDD0254A264B3C
:103830005046594602F066FB002800D09FE0269BC8
:10384000002B00D132E70E9B5A1E9341269AD31AC1
:1038500026932BE70426994628E7802212069446F1
:103860000C9BA24663449B4653E6C04601FCFFFF07
:10387000FB799F501344D33FB3C8608B288AC63F5F
:103880000000F03F0000F83F61436F63A787D23F1D
:1038900071A379094F930A400000E03F1655B5BB6C
:1038A000B16B0240EF39FAFE422EE63F00002C4099
:1038B0000000244000001840FF030000FFFFEFFF5E
:1038C000FFF7FFFF2D431CEBE2361A3F0A9A289BB5
:1038D00014009B0715D1042F13D9B2464646151F75
:1038E000ED19BB46099F0B95330039002020089D38
:1038F000541CA8470B9B22009C42F5D1B0465F4662
:1039000056464D4B49469A464346B9462200042541
:10391000A346B0461F000B915346013D541C585D11
:1039200009993B00089EB0472200002DF4D13B00CE
:103930005C460B9A464698460D9B4F469146221D83
:10394000002B00D1FCE60A9BD31A9F4200D8F7E671
:10395000B3464646BA46099F330039002020089DE9
:10396000541CA8470A9B2200E31A9A45F4D8B04693
:103970005E46E5E64A469B1A013B26934AE700224B
:103980002E4B5046594602F0B7FA002800D03BE7CC
:1039900055E70A9B289A9A46920717D1032F15D903
:1039A000B2461A004646DC1EE419BB46099F0B943A
:1039B000330039002020089C551CA0470B9B2A008F
:1039C0009D42F5D1B0465F465646AA461C4B494635
:1039D0009B464346B94652460324B0461F000B910E
:1039E0005B46013C551C185D09993B00089EB04799
:1039F0002A00002CF4D13B000B9A4F4691465246C8
:103A0000464698460D9B0332002B00D198E60A9B50
:103A1000D31A9F4200D893E6B3464646BA46099F5A
:103A2000330039002020089D541CA8470A9B22001F
:103A3000E31A9A45F4D89AE77CBD001080842E41A1
:103A400078BD0010F0B5DE4657464E464546E0B517
:103A500097B005000E0093461F00209A219B10008E
:103A6000190002F05CFA002800D0AEE220982199FB
:103A70000122C54B524202F03FFA002800D034E147
:103A8000209821990122C14B524202F043FA0028AA
:103A900000D0C1E0209821990022BD4B02F03AFAF3
:103AA000002800D008E1209821990022B94B02F0AB
:103AB00023FA002800D0FFE020982199002200235B
:103AC00002F01AFA002800D074E200230D9380233C
:103AD000249ADB001A40904600D0BAE10023AE4C95
:103AE000069307940EAB06249A462098219902F07B
:103AF00041FA099002F026FA02000B002098219961
:103B000002F087F9069A079B02F0B3F90A900B912D
:103B100002F054FA81460C9002F010FA02000B00F9
:103B20000A980B9902F075F900229C4B0A900B91B0
:103B300002F0F0F9002800D1E5E14B46013318000E
:103B40000C9302F0FBF9069A079B02F0DBF90028C0
:103B500000D0FBE1002C00D09CE1099C200002F089
:103B6000F1F902000B002098219902F052F900228D
:103B70008A4B0690079102F0BFF9002800D1D5E1E9
:103B80004346202B00D112E15C1C099B0A2118003E
:103B9000994601F0D5FE4246534630319954484685
:103BA0000A2101F0CDFEA046814600281ED05346D2
:103BB000A846BA464D461F00B14600E03400202C0E
:103BC00000D162E228000A2101F0BAFE661C303101
:103BD0003C19217028000A2101F0B2FE051EEDD12A
:103BE0003B0045465746B0469A464E460323249A24
:103BF0001340012B00D1B1E142462024202A00D1FC
:103C0000DCE00D9A002A00D135E242465146541CB0
:103C100040462D220A54D1E0249B5B0700D5ADE03D
:103C20005F4B9A46032398465B460693249B9B076B
:103C300018D1239B434500D84EE25B441C00434609
:103C4000E41AB9465A4637002E002500541C4B464C
:103C500039002020B0472200AC42F7D135003E00A9
:103C60004F460694B14644465646BA462F00069A39
:103C7000013C551C305D53464946B8472A00002C8C
:103C8000F6D1069B3D0043441A00249B9B0724D594
:103C90005B462399D31A99421FD92E00D0464F462E
:103CA0000D00434639002020541CB0475B462200DB
:103CB000E31A9D42F5D810E0249B5A460493239BB7
:103CC00031000393229B28000293209B219C0093A8
:103CD00001943B00FFF700FC0200100017B03CBC51
:103CE00090469946A246AB46F0BD249BD8469B071A
:103CF00018D1239B042B15D95B461C1F239BB84668
:103D00009C46644437005A462E002500541C434606
:103D100039002020B0472200AC42F7D135003E00E8
:103D20004746A0461F4BB9464246370004249A46F0
:103D30002E005346013C551C185D39004B46B047D8
:103D40002A00002CF5D14246249B350004323E0067
:103D50009B07C2D55B462399D31A9942BDD9370038
:103D6000C8462E000D00434639002020541CB047A1
:103D70005B462200E31A9D42F5D8AEE70A4B9A460D
:103D80000423984650E7C046FFFFEFFFFFFFEF7F99
:103D900065CDCD4165CDCDC180842E410000E03F91
:103DA0008CBD00107CBD001084BD0010A246032312
:103DB000249A1340012B00D1CEE02024D846002BBA
:103DC00017D1239B9C4214D25B441B1BB8465A4616
:103DD0003700A1462E001D00541C43463900202008
:103DE000B0472200AC42F7D135003E004746A0461E
:103DF0004C4643464246A146B84637002E0006933D
:103E00005346013C551C185D39004346B0472A0013
:103E1000002CF5D106994B468C4663441A00249B2E
:103E200035003E009B0700D457E75B462399D31A21
:103E3000994200D851E737002E000D004346390063
:103E40002020541CB0475B462200E31A9D42F5D85F
:103E500043E7229B092B00D85BE10EAB9A46302347
:103E60005246137001229046229B2F325C1E41461F
:103E7000203B504605E0013C425401319C4200D1B8
:103E8000EEE0092CF7D10022A84B88468246069224
:103E900007932AE64346202B89D0631E069301230D
:103EA0000C9C434420000A21994601F071FD5346C1
:103EB00042463031995420000A2101F069FD041E68
:103EC00000D122E1A84625004C46B9465746B246E5
:103ED00012E0069B2800013B0A21069301F058FDE1
:103EE000661C30313C19217028000A2101F050FD78
:103EF000051E00D1CFE03400202CEAD156464546BD
:103F0000BA464F4653E700220A980B99884B01F0B6
:103F1000F3FF002800D01DE60C9B002B02D0DB072E
:103F200000D417E60C9B01330C9313E6002206988D
:103F300007997F4B01F0EEFF002800D020E6012317
:103F4000A44623409C446346099319E6099B013328
:103F5000099300230C93FDE520239846239B002B17
:103F600000D1BFE00D9B002B03D1249A0C331342E8
:103F700002D0239B013B2393239B434500D8B1E010
:103F800042463023202A00D1B1E0424650462399D0
:103F9000541C83548C4200D1A1E02200202CF7D184
:103FA000202399465B46B8468246370006935A4618
:103FB0002E0025E7209A219B0020002101F029FFF7
:103FC0000123209021910D9381E5249BD8469B07E6
:103FD00018D1239B032B15D95B46DC1E239BB846C7
:103FE0009C46644437005A462E002500541C434624
:103FF00039002020B0472200AC42F7D135003E0006
:104000004746A0464B4BB9464246370003249A46E2
:104010002E005346013C551C185D39004B46B047F5
:104020002A00002CF5D14246249B350003323E0085
:104030009B0700D451E65B462399D31A994200D8D6
:104040004BE63700C8462E000D00434639002020BD
:10405000541CB0475B462200E31A9D42F5D83CE66B
:10406000354BE2009B181A685B6806920793202381
:104070008246984639E5249A52073BD54246514636
:10408000541C40462B220A5498E63B0045465746AE
:104090004E469A468BE64546B0465646BA464F4689
:1040A0004346202B00D182E6069B40461A0042443C
:1040B000110054463022002B29D0431C2254202BBF
:1040C00000D173E618008B42F7D1A2465A1C9046E5
:1040D00051462E22CA5453E55B460693C2E5239B04
:1040E0008246984642460123202A00D089E52024B2
:1040F000D8467EE6249A4446120700D45EE6202283
:104100005146404601340A5458E6C846C8E743467B
:10411000DCE7DA00084B9B185C681B680693079481
:10412000002398460EAB229C9A46DEE465CDCD4135
:104130000000E03F78BD001090BD0010F0B557467C
:104140004E464546DE46E0B597B00792012206008E
:104150000F002098219998465242CF4B01F0DAFE89
:1041600000284DD0249B5B0700D541E1CB4B9A46FC
:1041700003239B46079A249B14009B0711D1239B82
:104180009B450ED2190013008C4663441D005B460C
:10419000ED1A541C434639002020B0472200AC429F
:1041A000F7D1B946220037005D465646A246013D8A
:1041B000541C705D43464946B8472200002DF6D195
:1041C0005246249B3E005A444F469B0710D5079900
:1041D0002398531A98420BD9894605004346390063
:1041E0002020541CB0474B462200E31A9D42F5D8CC
:1041F000100017B03CBC90469946A246AB46F0BDB5
:10420000002220982199A64B01F084FE002800D0BE
:10421000F3E0209821990022A24B01F06DFE0028C6
:1042200000D0EAE0209821990022002301F064FEEA
:10423000002800D092E100230D938025249BED00FF
:104240001D4000D017E10023974C089309940EAB52
:1042500006249B462098219901F08CFE81460C9003
:1042600001F070FE02000B002098219901F0D1FDB1
:10427000089A099B01F0FDFD0A900B9101F09EFE4A
:10428000824601F05BFE02000B000A980B9901F0D8
:10429000C0FD0022854B0A900B9101F03BFE0028E7
:1042A00000D148E101239C46E244504601F046FE1D
:1042B000089A099B01F026FE002800D09CE1002C02
:1042C00000D006E10C9C200001F03CFE02000B0037
:1042D0002098219901F09DFD0022744B08900991CE
:1042E00001F00AFE002800D176E1202D00D1BAE0CD
:1042F0000C9B0A211800994601F022FB5B463031E5
:10430000595548460A2101F01BFB6C1C81462500CB
:1043100000281AD04D46BA46B1465F4600E0340048
:10432000202C00D103E128000A2101F009FB661CC2
:1043300030313C19217028000A2101F001FB051ED3
:10434000EDD13500BB464E4657460323249A134011
:10435000012B00D10EE12024202D0BD00D9A002A34
:1043600000D034E1249A520700D46FE12B22594641
:104370006C1C4A55079A1500002B12D1239B9C42B6
:104380000FD2190013008C4663441B1BA1461C006E
:10439000551C434639002020B0472A00A542F7D1DA
:1043A0004C46A246A9462A005B46013C551C185DB6
:1043B00039004346B0472A00002CF5D14B46534400
:1043C0001A00249B9B0700D412E707992398531ADD
:1043D000834200D30CE7894605004346390020207C
:1043E000541CB0474B462200E31A9D42F5D8FFE625
:1043F0002F4B9A4604239B46BCE6209A219B100033
:10440000190001F08CFD00281AD120982199012271
:10441000284B524201F070FD002811D1249B079ACD
:104420000493239B39000393229B30000293209B2B
:10443000219C009301944346FFF74EF80200D7E613
:10444000249B079A0493239B39000393229B3000FB
:104450000293209B219C009301944346FFF7F2FABC
:104460000200C5E683460323249A1340012B00D1A2
:104470007FE020247EE7229B092B00D8F2E00EABE0
:104480009B4630235A461370229B01255C1E302226
:10449000203B594615E0C046FFFFEF7F8CBD001062
:1044A00065CDCD4165CDCDC180842E410000E03F7A
:1044B00084BD0010FFFFEFFF013C4A5501359C42CF
:1044C0007BD0092CF8D100226C4B8B4608920993C3
:1044D000C0E6202DC7D06B1C50460A21994601F03A
:1044E00057FA5B463031595550460A2101F050FACF
:1044F000013C8246002800D1B2E04B465546B14609
:10450000BA465F4611E09B4628000A215E1CBB4468
:1045100001F03EFA5B463031197028000A2101F0A3
:1045200037FA013C051E76D03300202BEBD1BB4679
:104530004E46574697E700220A980B99504B01F0D8
:10454000DBFC002800D0BAE65346002B02D0DB0784
:1045500000D4B4E601239C46E244B0E6209A219BB5
:104560000020002101F055FC0123209021910D93A2
:1045700063E62025239B002B46D00D9B002B03D107
:10458000249A0C33134202D0239B013B2393239B99
:10459000AB4239D93023202D3AD05946239A6C1C8E
:1045A0004B5594422ED02500202CF8D12023079D76
:1045B0008B469A46A9462A00F6E6324BE2009B1843
:1045C0001A685B688B4608920993202542E62D22E3
:1045D00059466C1C4A55CDE6002208980999284B8B
:1045E00001F098FC002800D07FE60123A446234078
:1045F0009C4463460C9378E64B4601330C930023AE
:104600009A465CE68B46239D0123202D00D0A5E62B
:104610002024079DC5E63500BB464E465746202D53
:1046200000D120E7611930222B00002C09D0584618
:104630006B1C4255202B00D114E71D008B42F7D193
:1046400083462E2259465D1CCA544EE6249A2C00FD
:10465000120700D48EE62022594601344A5589E6D5
:104660004D46DCE7DA00074B00259B185C681B68A9
:10467000089309940EAB229C9B46EBE565CDCD419A
:104680000000E03F90BD0010F0B5DE4657464E46B4
:104690004546E0B5A9B01E00329B90460A93BF4A3A
:1046A000BF4B83468A461A60002968D0D146002550
:1046B000DA46307800280BD0013625281BD02A0096
:1046C00043464946D04730786C1C25000028F3D17A
:1046D000D3462A00CA46454501D343465A1E43469F
:1046E00051460020D847280029B03CBC9046994646
:1046F000A246AB46F0BD102330789B460E3B9C464D
:104700000300203B721CDBB20027A64C1100102BCB
:104710000DD89B00E3589F46012316001F433078B5
:10472000721C0300203BDBB21100102BF1D90300F7
:10473000303B092B00D8AEE100239B462A2800D14C
:10474000CFE100242E2800D1BDE10300683BDBB29D
:10475000122B00D9D3E3944A9B00D3589F460423DD
:1047600016001F43DBE7634616001F43D7E75B468F
:1047700016001F43D3E7082316001F43CFE78B4BD8
:104780009B4693E780235B0070781F434E1C030019
:10479000253BDBB2532B92D8854A9B00D3589F46CA
:1047A00070786C2801D100F0C0FC80235B001F43AF
:1047B0004E1CECE780239B0070781F434E1CE6E7FD
:1047C0007078682801D100F019FD80234E1C1F432A
:1047D000DDE7462801D100F058FC07220A9B049728
:1047E00007339343013294469C4462460A925A46E8
:1047F000029403925C681B682A0000930194494666
:1048000043465046FFF71EF9050052E72A006C1C8C
:10481000434649462520D04725004AE70A9B1A1DF2
:104820001B680C920A931878002C00D0ABE3002888
:1048300001D100F0A2FF02211A00494201239C4647
:10484000434608900B9307E00A98634680469B1AFC
:1048500043445B18002B03D001321378002BF3D1B3
:104860000B9B089898460A9BD31A08938023DB0079
:104870003B400B9303D0089BA34200D9089402232A
:104880001F4001D100F0DBFC002801D100F0BCFC8E
:104890000B9B002B01D000F062FE0A9B2A005C1BE0
:1048A00023005446B2464E46B946474698463B001A
:1048B0003100551CA0474346585D2A000028F6D118
:1048C000B8464F46B1465646A246002F01D000F0EA
:1048D0009BFC0C9B0A93ECE60A9B1A1D1B689346F3
:1048E000002B00D142E3212217430A970F2020A971
:1048F0000B940022089184460C0002E020290CD081
:104900000A0061461940CFB238003730092900D873
:104910000738511CA0541B09F0D10B9C0A9B019134
:104920000693082305930833039300230293089BFF
:104930002A0000930494434649465046FEF794FCEF
:104940005B4605000A93B4E60A9B6C1C04330B9487
:104950000893BB0700D478E30A9B2A0018784946DD
:104960004346D0475B465D44012B01D800F07EFEF4
:104970002B0057464D46B146464698460B9A541C66
:10498000330029002020B84722004445F7D1B04623
:10499000BA464E46A946250073E3C0468946001034
:1049A000282C002098BB0010DCBB001049320010FE
:1049B00028BC0010782800D1ECE2582801D100F082
:1049C00067FC6F2801D100F051FD622801D100F091
:1049D0004FFE10233A009A430B92692801D000F051
:1049E00039FF7B0501D500F02BFD80239B001F4084
:1049F000F73BFF3B0C93002F01D000F0C3FC80235A
:104A00000B9A5B001A40130094460A9A04320D92E6
:104A1000002B01D000F0CAFD0B9B5B0601D400F017
:104A2000BCFD0A9B1B78DA1798185040DA0F0A92DF
:104A3000002B08D10B9A1033110099430B915205AA
:104A400001D500F0A2FE0B9B61279B0600D54127F4
:104A50005A4620ABFFB20E950F94B34608930A3F17
:104A6000644610920C9D1E000CE03033DBB2621CD9
:104A70003355002801D100F017FC202A01D100F0A5
:104A800013FC1400290000F083FFCBB20929ECD9F4
:104A9000DB19DBB2EBE70023010001E01600013275
:104AA0009800C01840004018117803000800303802
:104AB000303B0928F2D908009B46B11C002416009F
:104AC0002E2800D041E680237078DB001F430300CE
:104AD000303B092B15D92A2800D1DAE20E0001312A
:104AE00033E60A990B1D09688B46002904DA022176
:104AF0000F43594649428B467078B11C0A93160001
:104B00001FE6030000E03100A00000194000C018BB
:104B10004B7830381A00303A4E1C0400092AF2D97A
:104B20001800023111E6202302009A43472A02D1DD
:104B300080231B011F4302239843452801D11E33C4
:104B40001F4307220A9B07339343013294469C4438
:104B5000624619685868089109900A9203000A0091
:104B60000B910C900898099901F0D9F9002800D010
:104B70009BE20122E34B52420B980C9901F0CAF9D7
:104B80000122E14B5242002800D0D5E20B980C994B
:104B900001F0B2F9002800D0A2E3002200230B9814
:104BA0000C9901F0A9F9002801D000F055FD0B9AED
:104BB0000C9B08920D938023DB003B40179300D1A0
:104BC000062480230D9A1B013B400E931300089985
:104BD0000F910B4301D100F0B6FCCC4B50009C462A
:104BE000400D604401F0AEF9C94ACA4B01F041F9E9
:104BF000C94ACA4B01F016F90D9A1090119113038E
:104C0000C74A0F991B0B1A431B921A9100221A983C
:104C10001B99C44B01F0FDF8C34AC44B01F029F9BC
:104C200002000B001098119901F0FCF801F0A2F9B4
:104C30000F9001F087F9BE4ABE4B1090119101F020
:104C400018F90022BC4B01F0EDF801F093F9BB4AD2
:104C5000BB4B16901098119901F00BF9109011911F
:104C6000169801F06FF9B74AB74B01F002F902004C
:104C70000B001098119901F0CCF802000B00109075
:104C8000119101F0F6F81490159110981199020005
:104C90000B0001F0C7F800221E901F91149815997F
:104CA000AA4B01F0C8F80022A94B01F0BBF80200A2
:104CB0000B001498159901F0BEF80022A54B01F0E5
:104CC000B1F802000B001498159901F0B4F8109A8D
:104CD000119B1490159180210020C90501F099F8CD
:104CE00002000B001498159901F09CF802000B00CB
:104CF0001E981F9901F09FF80022894B01F092F84D
:104D0000169B1A00944B9C46624413051D93002386
:104D10001C931C9A1D9B01F0ACF814900200169194
:104D20000B0008980D9901F0E7F800280AD00F9BB6
:104D30001498013B0F9316990022854B01F07BF8E4
:104D400014901691C6230F9A633293429B415B42A3
:104D5000043310930E9B002B1DD0169B149A134303
:104D600001D100F0C1FC7D4A7D4B08980D9901F0FE
:104D7000C9F8002809D000227A4B08980D9901F053
:104D8000BBF8002801D000F0AFFC002C03D0179B2B
:104D90005A1E9341E41A00230E93109B9B4502D99F
:104DA0005A46D31A0E9302233B40179306D0109B0A
:104DB0005A4253410E9A5B421A400E920F9B002BAF
:104DC00007D008980D99149A169B01F034F80890B2
:104DD0000D91002200230B980C9901F08DF800280A
:104DE00005D08020000684460D9961440D910D99EF
:104DF000089A0B00089801F092F8002801D000F002
:104E0000E2FC0122404B524208980D9901F074F8DF
:104E1000002801D000F075FC534B089A3B400493E6
:104E20000E9B029403930D9B4946009201935046BA
:104E30002A004346FFF782F90200109B002B00D1A5
:104E400070E1202007403B0059424B4100275B4264
:104E5000511C18400B91434649464530D0470F9AA4
:104E6000109BD117013B54180D93D20F20AB0E9518
:104E70004C403D000C9208930F961F0002E0350055
:104E8000202E0DD020000A2100F082FD6E1C303152
:104E90007D19297020000A2100F07AFD041EEED150
:104EA000052306930D9B32000593002304930A33D8
:104EB00003930C9B01920293089B0B9A0093494623
:104EC000434650460E9D0F9EFEF7CEF9179B0200FB
:104ED000002B00D126E1431B9B4500D822E15C4614
:104EE0005746531C9A46494643462020B8475246E7
:104EF000531B9C42F5D8BA461500FFF7DAFB0E00AB
:104F000045E4C046FFFFEF7FFFFFEFFF01FCFFFF1F
:104F1000FB799F501344D33FB3C8608B288AC63FA8
:104F20000000F03F0000F83F61436F63A787D23F66
:104F300071A379094F930A400000E03F1655B5BBB5
:104F4000B16B0240EF39FAFE422EE63F00002C40E2
:104F50000000244000001840FF0300002D431CEB1C
:104F6000E2361A3F80842E41FFF7FFFF10223900FE
:104F70009143113211430A917A0500D4B6E420AB73
:104F800000210893CAE4002801D100F0F6FB611E5D
:104F90001A0053E480231022DB003B400C920C22C9
:104FA00097430B973A00002B02D001239A430B92B0
:104FB00080270B9BBF001F40692800D11BE5642898
:104FC00000D118E5002F00D07CE280230B9A5B0013
:104FD0001A40130094460A9A04320D92002B00D016
:104FE00050E30B9B5B0600D445E30A9B187800282E
:104FF00007D10B9A1023110099430B91520500D54C
:10500000BFE30B9B61279B0600D5412720ABFFB276
:105010000A950E940F9608930A3F65460C9C1E0055
:105020000AE03033DBB26A1C7355002800D111E26C
:10503000202A00D10EE21500210000F0A9FCCBB21D
:105040000929EED9DB19DBB2EDE75B46012B00D86D
:10505000A7E36B1E9B4433005E469B4601E02500A0
:10506000013443462A00494620202700D047B44255
:10507000F5D15E4602350A9B3A0018784946434608
:10508000D047089B0A93FFF714FB20231F43FFF729
:10509000A4FB0A9AB0781468F11CE343DB171C40A8
:1050A000131D0A930236FFF750FB2C00BB0710D1EB
:1050B0005B46032B0DD9EC1E23002A005B440893AA
:1050C000434649462020541CD047089B22009C425E
:1050D000F6D103230893DC4B22000B932B003D00F9
:1050E0001F00089B0B98511C013B0C910893C05C5E
:1050F00049464346D047089B0C9A002BF2D13B000F
:105100002F00E21C1D00BB070CD5531B9B4509D982
:105110005F46541C434649462020D0472200631B6B
:105120009F42F6D81500FFF7C4FAC0239B00B07861
:105130001F430336FFF72BFB0B980C9900F0DCFEA6
:10514000002800D0CCE07B0700D46BE2BF4B089373
:1051500004230C930B95BB071CD10C9B9B4500D8DB
:105160002DE35A465419E41A33002A004E46A94644
:1051700055469A460D97571C434631002020A847B4
:105180003A00BC42F7D15346AA464D46B1461E00EE
:105190000B970D9F330056469A460B9A0C9C0D9523
:1051A000089B013C551C185D49464346B0472A0000
:1051B000002CF5D153460B99B2468C461E000C9B31
:1051C0000D9D63441A00BB07ACD5531B9B45A9D961
:1051D00033005C464E4657469946531C9A4631006A
:1051E00043462020B8475246531B9C42F5D84B46B5
:1051F000BA46B14615001E00FFF75BFAC023B0782F
:105200001F430336FFF7C3FA089B9B4501D8FFF7FE
:1052100060FB5A465419E41A33002A004E4657469A
:1052200099460135434631002020B8472A00A5425F
:10523000F7D14B46BA46B1461E00FFF74AFB089A23
:10524000531C934500D8A8E25B465B199B1A08974C
:105250001F0033002A004E46A14654469A460135A7
:10526000434631002020A0472A00BD42F7D15346D3
:10527000A2464C46B1461E005B460133089F089388
:105280000A9B1878002801D0FFF702FBFFF721FBEB
:105290000C233A009A4314331A430B927B0500D433
:1052A000C7E010230C9380E6109B5E469B460E9D44
:1052B0000F9C0B9B049406935B4605930C9B0393F6
:1052C0000A9B0293089B019200932A004346494699
:1052D0005046FDF7C9FF0D9B05000A93FFF7E9F95A
:1052E0000B95BB071BD15B46042B00D8B0E2330003
:1052F0002C1F2A004E46A94655469A465C440897FC
:10530000571C434631002020A8473A00A742F7D156
:105310005346AA464D46B1461E000B97089F4C4B7C
:105320000424089333004E46B94657469A460B9AD2
:105330000C95089B013C551C185D31004346B8474D
:105340002A00002CF5D15346BA464F460B9AB14677
:105350000C9D1E000432BB0700D4E3E6531B9B45A3
:1053600000D8DFE633005C464E4657469946531C4C
:105370009A46310043462020B8475246531B9C4270
:10538000F5D834E707220A9B07339343013294464A
:105390009C4462465F680A921A68FB171893199337
:1053A000189819990300534012930B007B401393F4
:1053B0009446129A139B121A8B41129213936246CF
:1053C000FB0F14933A4307D10B9A10231100994312
:1053D0000B91520500D5E7E10B9A6123920600D5A7
:1053E0004123DBB220AA0A3B0E950F9410960027AA
:1053F000129C139D08920D930C9E0CE03032D2B299
:10540000089C7B1CE255020004000D000A433FD0BB
:10541000202B3DD01F00320000232000290000F087
:10542000F9FAD2B2092AE9D90D9B9C466244D2B25C
:10543000E6E780239B001F40F13BFF3B0C93C1E557
:105440000A230C93B1E5C04678BD001084BD00105E
:105450007CBD00100A9D0E9C0F9E0B9B049406932E
:105460005B4605930C9B039300232AE708230C93C8
:105470008023DB003B40642800D090E53A000B9786
:10548000002B00D091E58027BF001740FFF7B3FA4B
:1054900012941395109E0F9C0E9D0B9A04940692E5
:1054A0005A4605920C9A01930392149A0292089B11
:1054B0002A000093494643465046FDF7D5FE0500B5
:1054C000FFF7F7F807220A9B07339343013294460C
:1054D0009C44624603CB03000A920B4307D10B9A0C
:1054E000103317009F430B97520500D563E10B9AC9
:1054F0006123920600D54123DBB220AA0A3B0E9518
:105500000F94002708920D930C9C109615000CE048
:105510003032D1B2E95518007A1C3100334300D142
:1055200085E0202A00D182E017002200002300F04D
:1055300071FAD2B203000E00092AE9D90D998C46FE
:105540006244D1B2E6E70E9B002B00D0C7E00D9B72
:10555000149116930423109300230F931BE40A9BCA
:1055600064195B1B0A9333002A004E46B94657461E
:105570009A4608E043463100551CB8470A9B585DDF
:10558000002862D02A00A242F4D153461500BA4640
:105590004F46B1461E00FFF798F90B9B1B0600D43F
:1055A000F7E00A9B00229B5EFFF73DFA0A9B1B680F
:1055B000DA1798185040DA0F0E92002B06D10B9A8A
:1055C0001033110099430B9152051FD40B9A61239C
:1055D000920600D54123DBB220AA0A3B08920A9327
:1055E00009E03033DBB208997A1CCB55002810D083
:1055F000202A0ED017000C9900F0CAF9CBB2092965
:10560000EFD90A9A94466344DBB2ECE7002220AB60
:1056100008930B9B049406935B4605930C9B0393A2
:105620000E9B4EE68D4B089303230C9392E50E9D43
:105630000F9C109E0B9B049406935B4605930C9B5A
:10564000019203930023029331E75346BA464F4633
:10565000B1461E00FFF739F98022120694460B9BD3
:1056600008930C9B63440D93FFF7A5FA250008E50A
:1056700002230C93FCE60B9B1B0600D498E00A9BCC
:105680001888B4E40A9B1868002806D10B9A1023E6
:10569000110099430B91520573D40B9A6123920622
:1056A00000D54123DBB220AA0A3B08920A930BE003
:1056B0003033DBB208997A1CCB55002800D1CCE6F8
:1056C000202A00D1C9E617000C9900F061F9CBB28D
:1056D0000929EDD90A9A94466344DBB2EAE70D9BA7
:1056E0001491169300230F930F9B9C4257DDE41AED
:1056F000013C8023DB001F43002310930F93FFF72F
:105700004AFB0B95BB070FD10E9B042B59D99C4626
:105710002A002C1F6444531C0B9349464346202007
:10572000D0470B9A9442F6D104244D4B0B9A089320
:105730000C97089B013C571C185D49464346D047CF
:105740003A00002CF5D10B9A179B0C9F0432002BCA
:1057500001D1FFF772FB0E99531B8B4201D3FFF768
:105760006CFB434649462020541CD0470E9922002A
:10577000631B8B42F5D3FFF760FB00230893FFF711
:1057800075F820AB0022089367E620AB002208934F
:105790008FE50A9B1B68FFF746F9089372E5002422
:1057A000A7E72F00250066E420AA0023089274E6EC
:1057B0000A9B18681BE420AB002208933AE70B957C
:1057C000E8E40B95B0E72C00BB0710D10E9B032B30
:1057D0000DD99C462A00EC1E644408944346494671
:1057E0002020541CD047089B2200A342F6D103235B
:1057F00008931C4B22000B932B003D001F00089BBD
:105800000B98511C013B0C910893C05C49464346E0
:10581000D047089B0C9A002BF2D13B002F001D00B3
:10582000179BE21C002B01D1FFF707FB0E99531BBE
:105830008B4201D3FFF701FB434649462020541C0D
:10584000D0470E992200631B8B42F5D3FFF7F5FA80
:105850000B9564E5063B17000C9309E68CBD001020
:105860007CBD001078BD001000B583B0009313001C
:105870000A0001000248FEF707FF03B000BDC04662
:105880004132001000B585B00391012102900093D0
:10589000034813004A4202A9FEF7F6FE05B000BD18
:1058A0004D32001010B5094A84B01468002C09D09C
:1058B000012200910300524203A90548A04701209C
:1058C00004B010BD01F0A4F80020F9E7282C002056
:1058D0005D32001001480421014B18477018002068
:1058E00005590010142310B50100188804331B88D3
:1058F000984710BD162310B50100188802331B8885
:10590000984710BDF0B5C64600B5002916D014233F
:105910000400012598461827890046184346216847
:1059200018883B88984701C4431E9841404205406F
:10593000A642F3D1280004BC9046F0BD0125F9E74A
:10594000124A936F9B0815D29066D166002905D044
:10595000FFE7FFE7FFE7516F106F704704B5802145
:105960000906C2175140002800D0C84305F0C8FE00
:10597000002104BDF0B5146E556E576F166FFFF71A
:10598000E3FF1466556657671667F0BD000000D048
:10599000114A936F9B0813D210665166002905D0F7
:1059A000FFE7FFE7FFE7516F106F704704B500286E
:1059B00001D00020C04305F0A3FE002104BDC04675
:1059C000F0B5146E556E576F166FFFF7E5FF14664E
:1059D000556657671667F0BD000000D094464E4AE2
:1059E000926F9208624601D230E0C046F0B54A4E4E
:1059F000B56F6D08FCD3346E756E776F366F00F03F
:105A000025F89446444A14665566576716676246F9
:105A1000F0BDC0469446404A926F9208624601D259
:105A200058E0C046F0B53C4EB56F6D08FCD3346EFF
:105A3000756E776F366F00F04DF89446364A1466EF
:105A40005566576716676246F0BDC046002B24DBDB
:105A500011D000293EDA00B5C943404200D10131DE
:105A600000F038F8C943404200D10131DB435242D3
:105A700000D1013300BD002AEBD1002801D100295B
:105A800005D00020C90FC90701D1C043410800B5A6
:105A900005F006FE0022002300BD00B500290ADB48
:105AA000DB43524200D1013300F014F8C9434042B5
:105AB00000D1013100BDC943404200D10131DB4377
:105AC000524200D1013300F005F8DB43524200D1CD
:105AD000013300BD002923D1002B18D1002A0CD09E
